{
  "contractName": "Trabic",
  "abi": [
    {
      "constant": true,
      "inputs": [],
      "name": "name",
      "outputs": [
        {
          "name": "",
          "type": "string"
        }
      ],
      "payable": false,
      "stateMutability": "view",
      "type": "function"
    },
    {
      "constant": false,
      "inputs": [
        {
          "name": "spender",
          "type": "address"
        },
        {
          "name": "value",
          "type": "uint256"
        }
      ],
      "name": "approve",
      "outputs": [
        {
          "name": "",
          "type": "bool"
        }
      ],
      "payable": false,
      "stateMutability": "nonpayable",
      "type": "function"
    },
    {
      "constant": true,
      "inputs": [],
      "name": "SUCCESS_CODE",
      "outputs": [
        {
          "name": "",
          "type": "uint8"
        }
      ],
      "payable": false,
      "stateMutability": "view",
      "type": "function"
    },
    {
      "constant": true,
      "inputs": [],
      "name": "totalSupply",
      "outputs": [
        {
          "name": "",
          "type": "uint256"
        }
      ],
      "payable": false,
      "stateMutability": "view",
      "type": "function"
    },
    {
      "constant": false,
      "inputs": [
        {
          "name": "from",
          "type": "address"
        },
        {
          "name": "to",
          "type": "address"
        },
        {
          "name": "value",
          "type": "uint256"
        }
      ],
      "name": "transferFrom",
      "outputs": [
        {
          "name": "",
          "type": "bool"
        }
      ],
      "payable": false,
      "stateMutability": "nonpayable",
      "type": "function"
    },
    {
      "constant": true,
      "inputs": [],
      "name": "decimals",
      "outputs": [
        {
          "name": "",
          "type": "uint8"
        }
      ],
      "payable": false,
      "stateMutability": "view",
      "type": "function"
    },
    {
      "constant": false,
      "inputs": [
        {
          "name": "spender",
          "type": "address"
        },
        {
          "name": "addedValue",
          "type": "uint256"
        }
      ],
      "name": "increaseAllowance",
      "outputs": [
        {
          "name": "",
          "type": "bool"
        }
      ],
      "payable": false,
      "stateMutability": "nonpayable",
      "type": "function"
    },
    {
      "constant": false,
      "inputs": [],
      "name": "unpause",
      "outputs": [],
      "payable": false,
      "stateMutability": "nonpayable",
      "type": "function"
    },
    {
      "constant": false,
      "inputs": [
        {
          "name": "account",
          "type": "address"
        },
        {
          "name": "amount",
          "type": "uint256"
        }
      ],
      "name": "mint",
      "outputs": [
        {
          "name": "",
          "type": "bool"
        }
      ],
      "payable": false,
      "stateMutability": "nonpayable",
      "type": "function"
    },
    {
      "constant": true,
      "inputs": [
        {
          "name": "account",
          "type": "address"
        }
      ],
      "name": "isPauser",
      "outputs": [
        {
          "name": "",
          "type": "bool"
        }
      ],
      "payable": false,
      "stateMutability": "view",
      "type": "function"
    },
    {
      "constant": true,
      "inputs": [],
      "name": "ZERO_ADDRESS_RESTRICTION_MESSAGE",
      "outputs": [
        {
          "name": "",
          "type": "string"
        }
      ],
      "payable": false,
      "stateMutability": "view",
      "type": "function"
    },
    {
      "constant": true,
      "inputs": [],
      "name": "paused",
      "outputs": [
        {
          "name": "",
          "type": "bool"
        }
      ],
      "payable": false,
      "stateMutability": "view",
      "type": "function"
    },
    {
      "constant": false,
      "inputs": [],
      "name": "renouncePauser",
      "outputs": [],
      "payable": false,
      "stateMutability": "nonpayable",
      "type": "function"
    },
    {
      "constant": true,
      "inputs": [
        {
          "name": "account",
          "type": "address"
        }
      ],
      "name": "balanceOf",
      "outputs": [
        {
          "name": "",
          "type": "uint256"
        }
      ],
      "payable": false,
      "stateMutability": "view",
      "type": "function"
    },
    {
      "constant": false,
      "inputs": [
        {
          "name": "account",
          "type": "address"
        }
      ],
      "name": "addPauser",
      "outputs": [],
      "payable": false,
      "stateMutability": "nonpayable",
      "type": "function"
    },
    {
      "constant": false,
      "inputs": [],
      "name": "pause",
      "outputs": [],
      "payable": false,
      "stateMutability": "nonpayable",
      "type": "function"
    },
    {
      "constant": true,
      "inputs": [],
      "name": "ZERO_ADDRESS_RESTRICTION_CODE",
      "outputs": [
        {
          "name": "",
          "type": "uint8"
        }
      ],
      "payable": false,
      "stateMutability": "view",
      "type": "function"
    },
    {
      "constant": true,
      "inputs": [],
      "name": "symbol",
      "outputs": [
        {
          "name": "",
          "type": "string"
        }
      ],
      "payable": false,
      "stateMutability": "view",
      "type": "function"
    },
    {
      "constant": false,
      "inputs": [
        {
          "name": "account",
          "type": "address"
        }
      ],
      "name": "addMinter",
      "outputs": [],
      "payable": false,
      "stateMutability": "nonpayable",
      "type": "function"
    },
    {
      "constant": false,
      "inputs": [],
      "name": "renounceMinter",
      "outputs": [],
      "payable": false,
      "stateMutability": "nonpayable",
      "type": "function"
    },
    {
      "constant": false,
      "inputs": [
        {
          "name": "spender",
          "type": "address"
        },
        {
          "name": "subtractedValue",
          "type": "uint256"
        }
      ],
      "name": "decreaseAllowance",
      "outputs": [
        {
          "name": "",
          "type": "bool"
        }
      ],
      "payable": false,
      "stateMutability": "nonpayable",
      "type": "function"
    },
    {
      "constant": true,
      "inputs": [
        {
          "name": "account",
          "type": "address"
        }
      ],
      "name": "isMinter",
      "outputs": [
        {
          "name": "",
          "type": "bool"
        }
      ],
      "payable": false,
      "stateMutability": "view",
      "type": "function"
    },
    {
      "constant": true,
      "inputs": [],
      "name": "UNKNOWN_MESSAGE",
      "outputs": [
        {
          "name": "",
          "type": "string"
        }
      ],
      "payable": false,
      "stateMutability": "view",
      "type": "function"
    },
    {
      "constant": true,
      "inputs": [
        {
          "name": "owner",
          "type": "address"
        },
        {
          "name": "spender",
          "type": "address"
        }
      ],
      "name": "allowance",
      "outputs": [
        {
          "name": "",
          "type": "uint256"
        }
      ],
      "payable": false,
      "stateMutability": "view",
      "type": "function"
    },
    {
      "constant": true,
      "inputs": [],
      "name": "SUCCESS_MESSAGE",
      "outputs": [
        {
          "name": "",
          "type": "string"
        }
      ],
      "payable": false,
      "stateMutability": "view",
      "type": "function"
    },
    {
      "inputs": [
        {
          "name": "_name",
          "type": "string"
        },
        {
          "name": "_symbol",
          "type": "string"
        },
        {
          "name": "_decimals",
          "type": "uint8"
        }
      ],
      "payable": false,
      "stateMutability": "nonpayable",
      "type": "constructor"
    },
    {
      "anonymous": false,
      "inputs": [
        {
          "indexed": false,
          "name": "account",
          "type": "address"
        }
      ],
      "name": "Paused",
      "type": "event"
    },
    {
      "anonymous": false,
      "inputs": [
        {
          "indexed": false,
          "name": "account",
          "type": "address"
        }
      ],
      "name": "Unpaused",
      "type": "event"
    },
    {
      "anonymous": false,
      "inputs": [
        {
          "indexed": true,
          "name": "account",
          "type": "address"
        }
      ],
      "name": "PauserAdded",
      "type": "event"
    },
    {
      "anonymous": false,
      "inputs": [
        {
          "indexed": true,
          "name": "account",
          "type": "address"
        }
      ],
      "name": "PauserRemoved",
      "type": "event"
    },
    {
      "anonymous": false,
      "inputs": [
        {
          "indexed": true,
          "name": "account",
          "type": "address"
        }
      ],
      "name": "MinterAdded",
      "type": "event"
    },
    {
      "anonymous": false,
      "inputs": [
        {
          "indexed": true,
          "name": "account",
          "type": "address"
        }
      ],
      "name": "MinterRemoved",
      "type": "event"
    },
    {
      "anonymous": false,
      "inputs": [
        {
          "indexed": true,
          "name": "from",
          "type": "address"
        },
        {
          "indexed": true,
          "name": "to",
          "type": "address"
        },
        {
          "indexed": false,
          "name": "value",
          "type": "uint256"
        }
      ],
      "name": "Transfer",
      "type": "event"
    },
    {
      "anonymous": false,
      "inputs": [
        {
          "indexed": true,
          "name": "owner",
          "type": "address"
        },
        {
          "indexed": true,
          "name": "spender",
          "type": "address"
        },
        {
          "indexed": false,
          "name": "value",
          "type": "uint256"
        }
      ],
      "name": "Approval",
      "type": "event"
    },
    {
      "constant": false,
      "inputs": [
        {
          "name": "_user",
          "type": "address"
        }
      ],
      "name": "addToBlacklist",
      "outputs": [],
      "payable": false,
      "stateMutability": "nonpayable",
      "type": "function"
    },
    {
      "constant": false,
      "inputs": [
        {
          "name": "_user",
          "type": "address"
        }
      ],
      "name": "removeToBlacklist",
      "outputs": [],
      "payable": false,
      "stateMutability": "nonpayable",
      "type": "function"
    },
    {
      "constant": true,
      "inputs": [
        {
          "name": "_user",
          "type": "address"
        }
      ],
      "name": "isUserBlacklisted",
      "outputs": [
        {
          "name": "",
          "type": "uint256"
        }
      ],
      "payable": false,
      "stateMutability": "view",
      "type": "function"
    },
    {
      "constant": true,
      "inputs": [
        {
          "name": "from",
          "type": "address"
        },
        {
          "name": "to",
          "type": "address"
        },
        {
          "name": "value",
          "type": "uint256"
        }
      ],
      "name": "detectTransferRestriction",
      "outputs": [
        {
          "name": "restrictionCode",
          "type": "uint8"
        }
      ],
      "payable": false,
      "stateMutability": "view",
      "type": "function"
    },
    {
      "constant": true,
      "inputs": [
        {
          "name": "restrictionCode",
          "type": "uint8"
        }
      ],
      "name": "messageForTransferRestriction",
      "outputs": [
        {
          "name": "message",
          "type": "string"
        }
      ],
      "payable": false,
      "stateMutability": "view",
      "type": "function"
    },
    {
      "constant": false,
      "inputs": [
        {
          "name": "to",
          "type": "address"
        },
        {
          "name": "value",
          "type": "uint256"
        }
      ],
      "name": "transfer",
      "outputs": [
        {
          "name": "",
          "type": "bool"
        }
      ],
      "payable": false,
      "stateMutability": "nonpayable",
      "type": "function"
    }
  ],
  "bytecode": "0x60806040523480156200001157600080fd5b50604051620030c8380380620030c8833981018060405260608110156200003757600080fd5b8101908080516401000000008111156200005057600080fd5b828101905060208101848111156200006757600080fd5b81518560018202830111640100000000821117156200008557600080fd5b50509291906020018051640100000000811115620000a257600080fd5b82810190506020810184811115620000b957600080fd5b8151856001820283011164010000000082111715620000d757600080fd5b505092919060200180519060200190929190505050828282620001093362000197640100000000026401000000009004565b620001233362000201640100000000026401000000009004565b6000600560006101000a81548160ff0219169083151502179055508260069080519060200190620001569291906200047e565b5081600790805190602001906200016f9291906200047e565b5080600860006101000a81548160ff021916908360ff1602179055505050505050506200052d565b620001bb8160036200026b6401000000000262002a6b179091906401000000009004565b8073ffffffffffffffffffffffffffffffffffffffff167f6ae172837ea30b801fbfcdd4108aa1d5bf8ff775444fd70256b44e6bf3dfc3f660405160405180910390a250565b620002258160046200026b6401000000000262002a6b179091906401000000009004565b8073ffffffffffffffffffffffffffffffffffffffff167f6719d08c1888103bea251a4ed56406bd0c3e69723c8a1686e017e7bbe159b6f860405160405180910390a250565b6200028682826200035a640100000000026401000000009004565b151515620002fc576040517f08c379a000000000000000000000000000000000000000000000000000000000815260040180806020018281038252601f8152602001807f526f6c65733a206163636f756e7420616c72656164792068617320726f6c650081525060200191505060405180910390fd5b60018260000160008373ffffffffffffffffffffffffffffffffffffffff1673ffffffffffffffffffffffffffffffffffffffff16815260200190815260200160002060006101000a81548160ff0219169083151502179055505050565b60008073ffffffffffffffffffffffffffffffffffffffff168273ffffffffffffffffffffffffffffffffffffffff161415151562000427576040517f08c379a00000000000000000000000000000000000000000000000000000000081526004018080602001828103825260228152602001807f526f6c65733a206163636f756e7420697320746865207a65726f20616464726581526020017f737300000000000000000000000000000000000000000000000000000000000081525060400191505060405180910390fd5b8260000160008373ffffffffffffffffffffffffffffffffffffffff1673ffffffffffffffffffffffffffffffffffffffff16815260200190815260200160002060009054906101000a900460ff16905092915050565b828054600181600116156101000203166002900490600052602060002090601f016020900481019282601f10620004c157805160ff1916838001178555620004f2565b82800160010185558215620004f2579182015b82811115620004f1578251825591602001919060010190620004d4565b5b50905062000501919062000505565b5090565b6200052a91905b80821115620005265760008160009055506001016200050c565b5090565b90565b612b8b806200053d6000396000f3fe60806040526004361061018b576000357c0100000000000000000000000000000000000000000000000000000000900463ffffffff16806306fdde0314610190578063095ea7b3146102205780630e969a051461029357806318160ddd146102c457806323b872dd146102ef578063313ce5671461038257806339509351146103b35780633f4ba83a1461042657806340c10f191461043d57806344337ea1146104b057806346fbf68e14610501578063503b8e811461056a578063572fb26c146105cf5780635c975abb1461065f5780636ef8d66d1461068e57806370a08231146106a55780637f4ab1dd1461070a57806382dc1ec4146107c15780638456cb59146108125780638a00d0ee146108295780639260c58c1461087a57806395d89b41146108ab578063983b2d561461093b578063986502751461098c578063a457c2d7146109a3578063a9059cbb14610a16578063aa271e1a14610a89578063ba0cf30414610af2578063d4ce141514610b82578063dd62ed3e14610c17578063e7984d1714610c9c575b600080fd5b34801561019c57600080fd5b506101a5610d2c565b6040518080602001828103825283818151815260200191508051906020019080838360005b838110156101e55780820151818401526020810190506101ca565b50505050905090810190601f1680156102125780820380516001836020036101000a031916815260200191505b509250505060405180910390f35b34801561022c57600080fd5b506102796004803603604081101561024357600080fd5b81019080803573ffffffffffffffffffffffffffffffffffffffff16906020019092919080359060200190929190505050610dce565b604051808215151515815260200191505060405180910390f35b34801561029f57600080fd5b506102a8610e67565b604051808260ff1660ff16815260200191505060405180910390f35b3480156102d057600080fd5b506102d9610e6c565b6040518082815260200191505060405180910390f35b3480156102fb57600080fd5b506103686004803603606081101561031257600080fd5b81019080803573ffffffffffffffffffffffffffffffffffffffff169060200190929190803573ffffffffffffffffffffffffffffffffffffffff16906020019092919080359060200190929190505050610e76565b604051808215151515815260200191505060405180910390f35b34801561038e57600080fd5b50610397610f11565b604051808260ff1660ff16815260200191505060405180910390f35b3480156103bf57600080fd5b5061040c600480360360408110156103d657600080fd5b81019080803573ffffffffffffffffffffffffffffffffffffffff16906020019092919080359060200190929190505050610f28565b604051808215151515815260200191505060405180910390f35b34801561043257600080fd5b5061043b610fc1565b005b34801561044957600080fd5b506104966004803603604081101561046057600080fd5b81019080803573ffffffffffffffffffffffffffffffffffffffff16906020019092919080359060200190929190505050611168565b604051808215151515815260200191505060405180910390f35b3480156104bc57600080fd5b506104ff600480360360208110156104d357600080fd5b81019080803573ffffffffffffffffffffffffffffffffffffffff169060200190929190505050611221565b005b34801561050d57600080fd5b506105506004803603602081101561052457600080fd5b81019080803573ffffffffffffffffffffffffffffffffffffffff169060200190929190505050611269565b604051808215151515815260200191505060405180910390f35b34801561057657600080fd5b506105b96004803603602081101561058d57600080fd5b81019080803573ffffffffffffffffffffffffffffffffffffffff169060200190929190505050611286565b6040518082815260200191505060405180910390f35b3480156105db57600080fd5b506105e46112cf565b6040518080602001828103825283818151815260200191508051906020019080838360005b83811015610624578082015181840152602081019050610609565b50505050905090810190601f1680156106515780820380516001836020036101000a031916815260200191505b509250505060405180910390f35b34801561066b57600080fd5b50610674611308565b604051808215151515815260200191505060405180910390f35b34801561069a57600080fd5b506106a361131f565b005b3480156106b157600080fd5b506106f4600480360360208110156106c857600080fd5b81019080803573ffffffffffffffffffffffffffffffffffffffff16906020019092919050505061132a565b6040518082815260200191505060405180910390f35b34801561071657600080fd5b506107466004803603602081101561072d57600080fd5b81019080803560ff169060200190929190505050611372565b6040518080602001828103825283818151815260200191508051906020019080838360005b8381101561078657808201518184015260208101905061076b565b50505050905090810190601f1680156107b35780820380516001836020036101000a031916815260200191505b509250505060405180910390f35b3480156107cd57600080fd5b50610810600480360360208110156107e457600080fd5b81019080803573ffffffffffffffffffffffffffffffffffffffff169060200190929190505050611446565b005b34801561081e57600080fd5b506108276114f5565b005b34801561083557600080fd5b506108786004803603602081101561084c57600080fd5b81019080803573ffffffffffffffffffffffffffffffffffffffff16906020019092919050505061169d565b005b34801561088657600080fd5b5061088f6116e5565b604051808260ff1660ff16815260200191505060405180910390f35b3480156108b757600080fd5b506108c06116ea565b6040518080602001828103825283818151815260200191508051906020019080838360005b838110156109005780820151818401526020810190506108e5565b50505050905090810190601f16801561092d5780820380516001836020036101000a031916815260200191505b509250505060405180910390f35b34801561094757600080fd5b5061098a6004803603602081101561095e57600080fd5b81019080803573ffffffffffffffffffffffffffffffffffffffff16906020019092919050505061178c565b005b34801561099857600080fd5b506109a161183b565b005b3480156109af57600080fd5b506109fc600480360360408110156109c657600080fd5b81019080803573ffffffffffffffffffffffffffffffffffffffff16906020019092919080359060200190929190505050611846565b604051808215151515815260200191505060405180910390f35b348015610a2257600080fd5b50610a6f60048036036040811015610a3957600080fd5b81019080803573ffffffffffffffffffffffffffffffffffffffff169060200190929190803590602001909291905050506118df565b604051808215151515815260200191505060405180910390f35b348015610a9557600080fd5b50610ad860048036036020811015610aac57600080fd5b81019080803573ffffffffffffffffffffffffffffffffffffffff169060200190929190505050611a5e565b604051808215151515815260200191505060405180910390f35b348015610afe57600080fd5b50610b07611a7b565b6040518080602001828103825283818151815260200191508051906020019080838360005b83811015610b47578082015181840152602081019050610b2c565b50505050905090810190601f168015610b745780820380516001836020036101000a031916815260200191505b509250505060405180910390f35b348015610b8e57600080fd5b50610bfb60048036036060811015610ba557600080fd5b81019080803573ffffffffffffffffffffffffffffffffffffffff169060200190929190803573ffffffffffffffffffffffffffffffffffffffff16906020019092919080359060200190929190505050611ab4565b604051808260ff1660ff16815260200191505060405180910390f35b348015610c2357600080fd5b50610c8660048036036040811015610c3a57600080fd5b81019080803573ffffffffffffffffffffffffffffffffffffffff169060200190929190803573ffffffffffffffffffffffffffffffffffffffff169060200190929190505050611afa565b6040518082815260200191505060405180910390f35b348015610ca857600080fd5b50610cb1611b81565b6040518080602001828103825283818151815260200191508051906020019080838360005b83811015610cf1578082015181840152602081019050610cd6565b50505050905090810190601f168015610d1e5780820380516001836020036101000a031916815260200191505b509250505060405180910390f35b606060068054600181600116156101000203166002900480601f016020809104026020016040519081016040528092919081815260200182805460018160011615610100020316600290048015610dc45780601f10610d9957610100808354040283529160200191610dc4565b820191906000526020600020905b815481529060010190602001808311610da757829003601f168201915b5050505050905090565b6000600560009054906101000a900460ff16151515610e55576040517f08c379a00000000000000000000000000000000000000000000000000000000081526004018080602001828103825260108152602001807f5061757361626c653a207061757365640000000000000000000000000000000081525060200191505060405180910390fd5b610e5f8383611bba565b905092915050565b600081565b6000600254905090565b6000600560009054906101000a900460ff16151515610efd576040517f08c379a00000000000000000000000000000000000000000000000000000000081526004018080602001828103825260108152602001807f5061757361626c653a207061757365640000000000000000000000000000000081525060200191505060405180910390fd5b610f08848484611bd1565b90509392505050565b6000600860009054906101000a900460ff16905090565b6000600560009054906101000a900460ff16151515610faf576040517f08c379a00000000000000000000000000000000000000000000000000000000081526004018080602001828103825260108152602001807f5061757361626c653a207061757365640000000000000000000000000000000081525060200191505060405180910390fd5b610fb98383611c82565b905092915050565b610fca33611269565b1515611064576040517f08c379a00000000000000000000000000000000000000000000000000000000081526004018080602001828103825260308152602001807f506175736572526f6c653a2063616c6c657220646f6573206e6f74206861766581526020017f207468652050617573657220726f6c650000000000000000000000000000000081525060400191505060405180910390fd5b600560009054906101000a900460ff1615156110e8576040517f08c379a00000000000000000000000000000000000000000000000000000000081526004018080602001828103825260148152602001807f5061757361626c653a206e6f742070617573656400000000000000000000000081525060200191505060405180910390fd5b6000600560006101000a81548160ff0219169083151502179055507f5db9ee0a495bf2e6ff9c91a7834c1ba4fdd244a5e8aa4e537bd38aeae4b073aa33604051808273ffffffffffffffffffffffffffffffffffffffff1673ffffffffffffffffffffffffffffffffffffffff16815260200191505060405180910390a1565b600061117333611a5e565b151561120d576040517f08c379a00000000000000000000000000000000000000000000000000000000081526004018080602001828103825260308152602001807f4d696e746572526f6c653a2063616c6c657220646f6573206e6f74206861766581526020017f20746865204d696e74657220726f6c650000000000000000000000000000000081525060400191505060405180910390fd5b6112178383611d27565b6001905092915050565b6001600960008373ffffffffffffffffffffffffffffffffffffffff1673ffffffffffffffffffffffffffffffffffffffff1681526020019081526020016000208190555050565b600061127f826004611ee490919063ffffffff16565b9050919050565b6000600960008373ffffffffffffffffffffffffffffffffffffffff1673ffffffffffffffffffffffffffffffffffffffff168152602001908152602001600020549050919050565b6040805190810160405280602081526020017f494c4c4547414c5f5452414e534645525f544f5f5a45524f5f4144445245535381525081565b6000600560009054906101000a900460ff16905090565b61132833612007565b565b60008060008373ffffffffffffffffffffffffffffffffffffffff1673ffffffffffffffffffffffffffffffffffffffff168152602001908152602001600020549050919050565b60606040805190810160405280600781526020017f554e4b4e4f574e000000000000000000000000000000000000000000000000008152509050600060ff168260ff1614156113f8576040805190810160405280600781526020017f53554343455353000000000000000000000000000000000000000000000000008152509050611441565b600160ff168260ff161415611440576040805190810160405280602081526020017f494c4c4547414c5f5452414e534645525f544f5f5a45524f5f4144445245535381525090505b5b919050565b61144f33611269565b15156114e9576040517f08c379a00000000000000000000000000000000000000000000000000000000081526004018080602001828103825260308152602001807f506175736572526f6c653a2063616c6c657220646f6573206e6f74206861766581526020017f207468652050617573657220726f6c650000000000000000000000000000000081525060400191505060405180910390fd5b6114f281612061565b50565b6114fe33611269565b1515611598576040517f08c379a00000000000000000000000000000000000000000000000000000000081526004018080602001828103825260308152602001807f506175736572526f6c653a2063616c6c657220646f6573206e6f74206861766581526020017f207468652050617573657220726f6c650000000000000000000000000000000081525060400191505060405180910390fd5b600560009054906101000a900460ff1615151561161d576040517f08c379a00000000000000000000000000000000000000000000000000000000081526004018080602001828103825260108152602001807f5061757361626c653a207061757365640000000000000000000000000000000081525060200191505060405180910390fd5b6001600560006101000a81548160ff0219169083151502179055507f62e78cea01bee320cd4e420270b5ea74000d11b0c9f74754ebdbfc544b05a25833604051808273ffffffffffffffffffffffffffffffffffffffff1673ffffffffffffffffffffffffffffffffffffffff16815260200191505060405180910390a1565b6000600960008373ffffffffffffffffffffffffffffffffffffffff1673ffffffffffffffffffffffffffffffffffffffff1681526020019081526020016000208190555050565b600181565b606060078054600181600116156101000203166002900480601f0160208091040260200160405190810160405280929190818152602001828054600181600116156101000203166002900480156117825780601f1061175757610100808354040283529160200191611782565b820191906000526020600020905b81548152906001019060200180831161176557829003601f168201915b5050505050905090565b61179533611a5e565b151561182f576040517f08c379a00000000000000000000000000000000000000000000000000000000081526004018080602001828103825260308152602001807f4d696e746572526f6c653a2063616c6c657220646f6573206e6f74206861766581526020017f20746865204d696e74657220726f6c650000000000000000000000000000000081525060400191505060405180910390fd5b611838816120bb565b50565b61184433612115565b565b6000600560009054906101000a900460ff161515156118cd576040517f08c379a00000000000000000000000000000000000000000000000000000000081526004018080602001828103825260108152602001807f5061757361626c653a207061757365640000000000000000000000000000000081525060200191505060405180910390fd5b6118d7838361216f565b905092915050565b600033838360006118f1848484611ab4565b90506000600960008673ffffffffffffffffffffffffffffffffffffffff1673ffffffffffffffffffffffffffffffffffffffff1681526020019081526020016000205414801561198157506000600960008573ffffffffffffffffffffffffffffffffffffffff1673ffffffffffffffffffffffffffffffffffffffff16815260200190815260200160002054145b151561198c57600080fd5b600060ff168160ff161461199f82611372565b901515611a47576040517f08c379a00000000000000000000000000000000000000000000000000000000081526004018080602001828103825283818151815260200191508051906020019080838360005b83811015611a0c5780820151818401526020810190506119f1565b50505050905090810190601f168015611a395780820380516001836020036101000a031916815260200191505b509250505060405180910390fd5b50611a528787612214565b94505050505092915050565b6000611a74826003611ee490919063ffffffff16565b9050919050565b6040805190810160405280600781526020017f554e4b4e4f574e0000000000000000000000000000000000000000000000000081525081565b6000809050600073ffffffffffffffffffffffffffffffffffffffff168373ffffffffffffffffffffffffffffffffffffffff161415611af357600190505b9392505050565b6000600160008473ffffffffffffffffffffffffffffffffffffffff1673ffffffffffffffffffffffffffffffffffffffff16815260200190815260200160002060008373ffffffffffffffffffffffffffffffffffffffff1673ffffffffffffffffffffffffffffffffffffffff16815260200190815260200160002054905092915050565b6040805190810160405280600781526020017f535543434553530000000000000000000000000000000000000000000000000081525081565b6000611bc73384846122ad565b6001905092915050565b6000611bde84848461252e565b611c778433611c7285600160008a73ffffffffffffffffffffffffffffffffffffffff1673ffffffffffffffffffffffffffffffffffffffff16815260200190815260200160002060003373ffffffffffffffffffffffffffffffffffffffff1673ffffffffffffffffffffffffffffffffffffffff1681526020019081526020016000205461285490919063ffffffff16565b6122ad565b600190509392505050565b6000611d1d3384611d1885600160003373ffffffffffffffffffffffffffffffffffffffff1673ffffffffffffffffffffffffffffffffffffffff16815260200190815260200160002060008973ffffffffffffffffffffffffffffffffffffffff1673ffffffffffffffffffffffffffffffffffffffff168152602001908152602001600020546128df90919063ffffffff16565b6122ad565b6001905092915050565b600073ffffffffffffffffffffffffffffffffffffffff168273ffffffffffffffffffffffffffffffffffffffff1614151515611dcc576040517f08c379a000000000000000000000000000000000000000000000000000000000815260040180806020018281038252601f8152602001807f45524332303a206d696e7420746f20746865207a65726f20616464726573730081525060200191505060405180910390fd5b611de1816002546128df90919063ffffffff16565b600281905550611e38816000808573ffffffffffffffffffffffffffffffffffffffff1673ffffffffffffffffffffffffffffffffffffffff168152602001908152602001600020546128df90919063ffffffff16565b6000808473ffffffffffffffffffffffffffffffffffffffff1673ffffffffffffffffffffffffffffffffffffffff168152602001908152602001600020819055508173ffffffffffffffffffffffffffffffffffffffff16600073ffffffffffffffffffffffffffffffffffffffff167fddf252ad1be2c89b69c2b068fc378daa952ba7f163c4a11628f55a4df523b3ef836040518082815260200191505060405180910390a35050565b60008073ffffffffffffffffffffffffffffffffffffffff168273ffffffffffffffffffffffffffffffffffffffff1614151515611fb0576040517f08c379a00000000000000000000000000000000000000000000000000000000081526004018080602001828103825260228152602001807f526f6c65733a206163636f756e7420697320746865207a65726f20616464726581526020017f737300000000000000000000000000000000000000000000000000000000000081525060400191505060405180910390fd5b8260000160008373ffffffffffffffffffffffffffffffffffffffff1673ffffffffffffffffffffffffffffffffffffffff16815260200190815260200160002060009054906101000a900460ff16905092915050565b61201b81600461296990919063ffffffff16565b8073ffffffffffffffffffffffffffffffffffffffff167fcd265ebaf09df2871cc7bd4133404a235ba12eff2041bb89d9c714a2621c7c7e60405160405180910390a250565b612075816004612a6b90919063ffffffff16565b8073ffffffffffffffffffffffffffffffffffffffff167f6719d08c1888103bea251a4ed56406bd0c3e69723c8a1686e017e7bbe159b6f860405160405180910390a250565b6120cf816003612a6b90919063ffffffff16565b8073ffffffffffffffffffffffffffffffffffffffff167f6ae172837ea30b801fbfcdd4108aa1d5bf8ff775444fd70256b44e6bf3dfc3f660405160405180910390a250565b61212981600361296990919063ffffffff16565b8073ffffffffffffffffffffffffffffffffffffffff167fe94479a9f7e1952cc78f2d6baab678adc1b772d936c6583def489e524cb6669260405160405180910390a250565b600061220a338461220585600160003373ffffffffffffffffffffffffffffffffffffffff1673ffffffffffffffffffffffffffffffffffffffff16815260200190815260200160002060008973ffffffffffffffffffffffffffffffffffffffff1673ffffffffffffffffffffffffffffffffffffffff1681526020019081526020016000205461285490919063ffffffff16565b6122ad565b6001905092915050565b6000600560009054906101000a900460ff1615151561229b576040517f08c379a00000000000000000000000000000000000000000000000000000000081526004018080602001828103825260108152602001807f5061757361626c653a207061757365640000000000000000000000000000000081525060200191505060405180910390fd5b6122a58383612b48565b905092915050565b600073ffffffffffffffffffffffffffffffffffffffff168373ffffffffffffffffffffffffffffffffffffffff1614151515612378576040517f08c379a00000000000000000000000000000000000000000000000000000000081526004018080602001828103825260248152602001807f45524332303a20617070726f76652066726f6d20746865207a65726f2061646481526020017f726573730000000000000000000000000000000000000000000000000000000081525060400191505060405180910390fd5b600073ffffffffffffffffffffffffffffffffffffffff168273ffffffffffffffffffffffffffffffffffffffff1614151515612443576040517f08c379a00000000000000000000000000000000000000000000000000000000081526004018080602001828103825260228152602001807f45524332303a20617070726f766520746f20746865207a65726f20616464726581526020017f737300000000000000000000000000000000000000000000000000000000000081525060400191505060405180910390fd5b80600160008573ffffffffffffffffffffffffffffffffffffffff1673ffffffffffffffffffffffffffffffffffffffff16815260200190815260200160002060008473ffffffffffffffffffffffffffffffffffffffff1673ffffffffffffffffffffffffffffffffffffffff168152602001908152602001600020819055508173ffffffffffffffffffffffffffffffffffffffff168373ffffffffffffffffffffffffffffffffffffffff167f8c5be1e5ebec7d5bd14f71427d1e84f3dd0314c0f7b2291e5b200ac8c7c3b925836040518082815260200191505060405180910390a3505050565b600073ffffffffffffffffffffffffffffffffffffffff168373ffffffffffffffffffffffffffffffffffffffff16141515156125f9576040517f08c379a00000000000000000000000000000000000000000000000000000000081526004018080602001828103825260258152602001807f45524332303a207472616e736665722066726f6d20746865207a65726f20616481526020017f647265737300000000000000000000000000000000000000000000000000000081525060400191505060405180910390fd5b600073ffffffffffffffffffffffffffffffffffffffff168273ffffffffffffffffffffffffffffffffffffffff16141515156126c4576040517f08c379a00000000000000000000000000000000000000000000000000000000081526004018080602001828103825260238152602001807f45524332303a207472616e7366657220746f20746865207a65726f206164647281526020017f657373000000000000000000000000000000000000000000000000000000000081525060400191505060405180910390fd5b612715816000808673ffffffffffffffffffffffffffffffffffffffff1673ffffffffffffffffffffffffffffffffffffffff1681526020019081526020016000205461285490919063ffffffff16565b6000808573ffffffffffffffffffffffffffffffffffffffff1673ffffffffffffffffffffffffffffffffffffffff168152602001908152602001600020819055506127a8816000808573ffffffffffffffffffffffffffffffffffffffff1673ffffffffffffffffffffffffffffffffffffffff168152602001908152602001600020546128df90919063ffffffff16565b6000808473ffffffffffffffffffffffffffffffffffffffff1673ffffffffffffffffffffffffffffffffffffffff168152602001908152602001600020819055508173ffffffffffffffffffffffffffffffffffffffff168373ffffffffffffffffffffffffffffffffffffffff167fddf252ad1be2c89b69c2b068fc378daa952ba7f163c4a11628f55a4df523b3ef836040518082815260200191505060405180910390a3505050565b60008282111515156128ce576040517f08c379a000000000000000000000000000000000000000000000000000000000815260040180806020018281038252601e8152602001807f536166654d6174683a207375627472616374696f6e206f766572666c6f77000081525060200191505060405180910390fd5b600082840390508091505092915050565b600080828401905083811015151561295f576040517f08c379a000000000000000000000000000000000000000000000000000000000815260040180806020018281038252601b8152602001807f536166654d6174683a206164646974696f6e206f766572666c6f77000000000081525060200191505060405180910390fd5b8091505092915050565b6129738282611ee4565b1515612a0d576040517f08c379a00000000000000000000000000000000000000000000000000000000081526004018080602001828103825260218152602001807f526f6c65733a206163636f756e7420646f6573206e6f74206861766520726f6c81526020017f650000000000000000000000000000000000000000000000000000000000000081525060400191505060405180910390fd5b60008260000160008373ffffffffffffffffffffffffffffffffffffffff1673ffffffffffffffffffffffffffffffffffffffff16815260200190815260200160002060006101000a81548160ff0219169083151502179055505050565b612a758282611ee4565b151515612aea576040517f08c379a000000000000000000000000000000000000000000000000000000000815260040180806020018281038252601f8152602001807f526f6c65733a206163636f756e7420616c72656164792068617320726f6c650081525060200191505060405180910390fd5b60018260000160008373ffffffffffffffffffffffffffffffffffffffff1673ffffffffffffffffffffffffffffffffffffffff16815260200190815260200160002060006101000a81548160ff0219169083151502179055505050565b6000612b5533848461252e565b600190509291505056fea165627a7a72305820400c960c0602d0d00b4977b200c094fbd49bd44a15f008d93eec4b4323906f7b0029",
  "source": "pragma solidity ^0.5.0;\nimport \"/media/hammad/New Volume/ExpressBox/contracts/ERC1404.sol\";\n//import \"openzeppelin-solidity/contracts/token/ERC20/MintableToken.sol\";\n//import \"openzeppelin-solidity/contracts/token/ERC20/PausableToken.sol\";\n\n\n\ncontract Trabic is ERC1404{\n   // string public constant name = \"ERC20Token\"; // solium-disable-line uppercase\n    //string public constant symbol = \"ERC\"; // solium-disable-line uppercase\n    //uint8 public constant decimals = 18; // solium-disable-line uppercase\n   // uint256 public constant INITIAL_SUPPLY = 10000 * (10 ** uint256(decimals));\n    uint8 public constant SUCCESS_CODE = 0;\n    uint8 public constant ZERO_ADDRESS_RESTRICTION_CODE = 1;\n    string public constant UNKNOWN_MESSAGE = \"UNKNOWN\";\n    string public constant SUCCESS_MESSAGE = \"SUCCESS\";\n    string public constant ZERO_ADDRESS_RESTRICTION_MESSAGE = \"ILLEGAL_TRANSFER_TO_ZERO_ADDRESS\";\n    mapping (address => uint256) private blacklist;\n\n  constructor(string memory _name, string memory _symbol, uint8 _decimals)\n        ERC20Detailed(_name,_symbol,_decimals)\n        public\n    {\n\n    }\n function addToBlacklist (address _user) public {\n        blacklist[_user] = 1;\n    }\n function removeToBlacklist (address _user) public {\n        blacklist[_user] = 0;\n    }\n  function isUserBlacklisted(address _user) public view returns (uint256) {\n        return blacklist[_user];\n    }\n   modifier notRestricted (address from, address to, uint256 value) {\n        uint8 restrictionCode = detectTransferRestriction(from, to, value);\n        require(blacklist[from] == 0 && blacklist[to] == 0);\n        require(restrictionCode == SUCCESS_CODE, messageForTransferRestriction(restrictionCode));\n        _;\n  }\n     function detectTransferRestriction (address from, address to, uint256 value)\n        public view returns (uint8 restrictionCode)\n    {\n        restrictionCode = SUCCESS_CODE; // success\n        if (to == address(0x0)) {\n            restrictionCode = ZERO_ADDRESS_RESTRICTION_CODE; // illegal transfer to zero address\n        }\n    }\n function messageForTransferRestriction (uint8 restrictionCode)\n        public view returns (string memory message)\n    {\n        message = UNKNOWN_MESSAGE;\n        if (restrictionCode == SUCCESS_CODE) {\n            message = SUCCESS_MESSAGE;\n        } else if (restrictionCode == ZERO_ADDRESS_RESTRICTION_CODE) {\n            message = ZERO_ADDRESS_RESTRICTION_MESSAGE;\n        }\n    }\n       function transfer (address to, uint256 value)\n        public notRestricted(msg.sender, to, value) returns (bool)\n    {\n        return super.transfer(to, value);\n    }\n\n\n\n    \n\n\n\n\n \n\n}\n",
  "sourcePath": "/media/hammad/New Volume/ExpressBox/contracts/Trabic.sol",
  "compiler": {
    "name": "solc",
    "version": "0.5.0+commit.1d4f565a.Emscripten.clang"
  },
  "schemaVersion": "3.0.11",
  "updatedAt": "2019-08-07T12:15:18.611Z",
  "devdoc": {
    "methods": {
      "allowance(address,address)": {
        "details": "See `IERC20.allowance`."
      },
      "balanceOf(address)": {
        "details": "See `IERC20.balanceOf`."
      },
      "decimals()": {
        "details": "Returns the number of decimals used to get its user representation. For example, if `decimals` equals `2`, a balance of `505` tokens should be displayed to a user as `5,05` (`505 / 10 ** 2`).     * Tokens usually opt for a value of 18, imitating the relationship between Ether and Wei.     * > Note that this information is only used for _display_ purposes: it in no way affects any of the arithmetic of the contract, including `IERC20.balanceOf` and `IERC20.transfer`."
      },
      "mint(address,uint256)": {
        "details": "See `ERC20._mint`.     * Requirements:     * - the caller must have the `MinterRole`."
      },
      "name()": {
        "details": "Returns the name of the token."
      },
      "pause()": {
        "details": "Called by a pauser to pause, triggers stopped state."
      },
      "paused()": {
        "details": "Returns true if the contract is paused, and false otherwise."
      },
      "symbol()": {
        "details": "Returns the symbol of the token, usually a shorter version of the name."
      },
      "totalSupply()": {
        "details": "See `IERC20.totalSupply`."
      },
      "unpause()": {
        "details": "Called by a pauser to unpause, returns to normal state."
      }
    }
  },
  "userdoc": {
    "methods": {}
  }
}